{
  "contractName": "Election",
  "abi": [
    {
      "inputs": [],
      "payable": false,
      "stateMutability": "nonpayable",
      "type": "constructor"
    },
    {
      "anonymous": false,
      "inputs": [
        {
          "indexed": true,
          "internalType": "uint256",
          "name": "_candidateId",
          "type": "uint256"
        }
      ],
      "name": "votedEvent",
      "type": "event"
    },
    {
      "constant": true,
      "inputs": [
        {
          "internalType": "uint256",
          "name": "",
          "type": "uint256"
        }
      ],
      "name": "candidates",
      "outputs": [
        {
          "internalType": "uint256",
          "name": "id",
          "type": "uint256"
        },
        {
          "internalType": "string",
          "name": "name",
          "type": "string"
        },
        {
          "internalType": "uint256",
          "name": "voteCount",
          "type": "uint256"
        }
      ],
      "payable": false,
      "stateMutability": "view",
      "type": "function"
    },
    {
      "constant": true,
      "inputs": [],
      "name": "candidatesCount",
      "outputs": [
        {
          "internalType": "uint256",
          "name": "",
          "type": "uint256"
        }
      ],
      "payable": false,
      "stateMutability": "view",
      "type": "function"
    },
    {
      "constant": true,
      "inputs": [
        {
          "internalType": "address",
          "name": "",
          "type": "address"
        }
      ],
      "name": "voters",
      "outputs": [
        {
          "internalType": "bool",
          "name": "",
          "type": "bool"
        }
      ],
      "payable": false,
      "stateMutability": "view",
      "type": "function"
    },
    {
      "constant": false,
      "inputs": [
        {
          "internalType": "string",
          "name": "_name",
          "type": "string"
        }
      ],
      "name": "addCandidate",
      "outputs": [],
      "payable": false,
      "stateMutability": "nonpayable",
      "type": "function"
    },
    {
      "constant": false,
      "inputs": [
        {
          "internalType": "uint256",
          "name": "_candidateId",
          "type": "uint256"
        }
      ],
      "name": "vote",
      "outputs": [],
      "payable": false,
      "stateMutability": "nonpayable",
      "type": "function"
    }
  ],
  "bytecode": "0x608060405234801561001057600080fd5b506100556040518060400160405280601481526020017f44616e69656c20536f6f6e205975656e2048616f0000000000000000000000008152506102be60201b60201c565b6100996040518060400160405280600f81526020017f4e757220496d616e204171696c616800000000000000000000000000000000008152506102be60201b60201c565b6100dd6040518060400160405280601481526020017f5361736861205368616d73756464696e204c65650000000000000000000000008152506102be60201b60201c565b6101216040518060400160405280601081526020017f4d6f68616d6d6164205379617a77616e000000000000000000000000000000008152506102be60201b60201c565b6101656040518060400160405280601d81526020017f4e7572696e20497a7a6174692062696e7469204e6f6f7220417a6d616e0000008152506102be60201b60201c565b6101a96040518060400160405280601581526020017f416264756c2057616861622062696e20486f736e6900000000000000000000008152506102be60201b60201c565b6101ed6040518060400160405280600e81526020017f416264756c6c61682048616b696d0000000000000000000000000000000000008152506102be60201b60201c565b6102316040518060400160405280601081526020017f526f7920576f6e67204b696d204a6965000000000000000000000000000000008152506102be60201b60201c565b6102756040518060400160405280601781526020017f5261796d6f6e64204368756120596f6e67205869616e670000000000000000008152506102be60201b60201c565b6102b96040518060400160405280600b81526020017f4c696d204a696120596f6e0000000000000000000000000000000000000000008152506102be60201b60201c565b6103df565b60026000815480929190600101919050555060405180606001604052806002548152602001828152602001600081525060016000600254815260200190815260200160002060008201518160000155602082015181600101908051906020019061032992919061033a565b506040820151816002015590505050565b828054600181600116156101000203166002900490600052602060002090601f016020900481019282601f1061037b57805160ff19168380011785556103a9565b828001600101855582156103a9579182015b828111156103a857825182559160200191906001019061038d565b5b5090506103b691906103ba565b5090565b6103dc91905b808211156103d85760008160009055506001016103c0565b5090565b90565b6105d0806103ee6000396000f3fe608060405234801561001057600080fd5b50600436106100575760003560e01c80630121b93f1461005c5780632d35a8a21461008a5780633477ee2e146100a8578063462e91ec1461015d578063a3ec138d14610218575b600080fd5b6100886004803603602081101561007257600080fd5b8101908080359060200190929190505050610274565b005b610092610392565b6040518082815260200191505060405180910390f35b6100d4600480360360208110156100be57600080fd5b8101908080359060200190929190505050610398565b6040518084815260200180602001838152602001828103825284818151815260200191508051906020019080838360005b83811015610120578082015181840152602081019050610105565b50505050905090810190601f16801561014d5780820380516001836020036101000a031916815260200191505b5094505050505060405180910390f35b6102166004803603602081101561017357600080fd5b810190808035906020019064010000000081111561019057600080fd5b8201836020820111156101a257600080fd5b803590602001918460018302840111640100000000831117156101c457600080fd5b91908080601f016020809104026020016040519081016040528093929190818152602001838380828437600081840152601f19601f82011690508083019250505050505050919291929050505061045a565b005b61025a6004803603602081101561022e57600080fd5b81019080803573ffffffffffffffffffffffffffffffffffffffff1690602001909291905050506104d6565b604051808215151515815260200191505060405180910390f35b6000803373ffffffffffffffffffffffffffffffffffffffff1673ffffffffffffffffffffffffffffffffffffffff16815260200190815260200160002060009054906101000a900460ff16156102ca57600080fd5b6000811180156102dc57506002548111155b6102e557600080fd5b60016000803373ffffffffffffffffffffffffffffffffffffffff1673ffffffffffffffffffffffffffffffffffffffff16815260200190815260200160002060006101000a81548160ff0219169083151502179055506001600082815260200190815260200160002060020160008154809291906001019190505550807ffff3c900d938d21d0990d786e819f29b8d05c1ef587b462b939609625b684b1660405160405180910390a250565b60025481565b6001602052806000526040600020600091509050806000015490806001018054600181600116156101000203166002900480601f01602080910402602001604051908101604052809291908181526020018280546001816001161561010002031660029004801561044a5780601f1061041f5761010080835404028352916020019161044a565b820191906000526020600020905b81548152906001019060200180831161042d57829003601f168201915b5050505050908060020154905083565b6002600081548092919060010191905055506040518060600160405280600254815260200182815260200160008152506001600060025481526020019081526020016000206000820151816000015560208201518160010190805190602001906104c59291906104f6565b506040820151816002015590505050565b60006020528060005260406000206000915054906101000a900460ff1681565b828054600181600116156101000203166002900490600052602060002090601f016020900481019282601f1061053757805160ff1916838001178555610565565b82800160010185558215610565579182015b82811115610564578251825591602001919060010190610549565b5b5090506105729190610576565b5090565b61059891905b8082111561059457600081600090555060010161057c565b5090565b9056fea265627a7a7231582074afe96aa3118008634b4af451af77b663e393c8b16476057b580a278807993864736f6c63430005100032",
  "source": "pragma solidity ^0.5.0;\r\n\r\ncontract Election {\r\n    // Model a Candidate\r\n    struct Candidate {\r\n        uint id;\r\n        string name;\r\n        uint voteCount;\r\n    }\r\n\r\n    // Store accounts that have voted\r\n    mapping(address => bool) public voters;\r\n    // Store Candidates\r\n    // Fetch Candidate\r\n    mapping(uint => Candidate) public candidates;\r\n    // Store Candidates Count\r\n    uint public candidatesCount;\r\n\r\n    // voted event\r\n    event votedEvent (\r\n        uint indexed _candidateId\r\n    );\r\n\r\n    constructor() public {\r\n        addCandidate(\"Daniel Soon Yuen Hao\");\r\n        addCandidate(\"Nur Iman Aqilah\");\r\n        addCandidate(\"Sasha Shamsuddin Lee\");\r\n        addCandidate(\"Mohammad Syazwan\");\r\n        addCandidate(\"Nurin Izzati binti Noor Azman\");\r\n        addCandidate(\"Abdul Wahab bin Hosni\");\r\n        addCandidate(\"Abdullah Hakim\");\r\n        addCandidate(\"Roy Wong Kim Jie\");\r\n        addCandidate(\"Raymond Chua Yong Xiang\");\r\n        addCandidate(\"Lim Jia Yon\");\r\n\r\n    }\r\n\r\n    function addCandidate (string memory _name) public {\r\n        candidatesCount ++;\r\n        candidates[candidatesCount] = Candidate(candidatesCount, _name, 0);\r\n    }\r\n\r\n    function vote (uint _candidateId) public {\r\n        // require that they haven't voted before\r\n        require(!voters[msg.sender]);\r\n\r\n        // require a valid candidate\r\n        require(_candidateId > 0 && _candidateId <= candidatesCount);\r\n\r\n        // record that voter has voted\r\n        voters[msg.sender] = true;\r\n\r\n        // update candidate vote Count\r\n        candidates[_candidateId].voteCount ++;\r\n\r\n        // trigger voted event\r\n        emit votedEvent(_candidateId);\r\n    }\r\n}\r\n",
  "sourcePath": "C:\\Users\\mf\\Documents\\GitHub\\blocvote\\contracts\\Election.sol",
  "compiler": {
    "name": "solc",
    "version": "0.5.16+commit.9c3226ce.Emscripten.clang"
  },
  "schemaVersion": "3.4.4",
  "updatedAt": "2022-02-03T09:12:08.517Z",
  "networkType": "ethereum",
  "devdoc": {
    "methods": {}
  },
  "userdoc": {
    "methods": {}
  }
}